{
  "_format": "hh-sol-artifact-1",
  "contractName": "TopSecret",
  "sourceName": "contracts/TopSecret.sol",
  "abi": [
    {
      "inputs": [],
      "stateMutability": "nonpayable",
      "type": "constructor"
    },
    {
      "inputs": [
        {
          "internalType": "string",
          "name": "_code",
          "type": "string"
        }
      ],
      "name": "addCode",
      "outputs": [],
      "stateMutability": "nonpayable",
      "type": "function"
    },
    {
      "inputs": [
        {
          "internalType": "address",
          "name": "_newOwner",
          "type": "address"
        },
        {
          "internalType": "string",
          "name": "name",
          "type": "string"
        }
      ],
      "name": "addOwner",
      "outputs": [],
      "stateMutability": "nonpayable",
      "type": "function"
    },
    {
      "inputs": [
        {
          "internalType": "string",
          "name": "codeEntry",
          "type": "string"
        },
        {
          "internalType": "string",
          "name": "teamName",
          "type": "string"
        }
      ],
      "name": "claimCode",
      "outputs": [],
      "stateMutability": "nonpayable",
      "type": "function"
    },
    {
      "inputs": [],
      "name": "getMessages",
      "outputs": [
        {
          "components": [
            {
              "internalType": "address",
              "name": "addrSender",
              "type": "address"
            },
            {
              "internalType": "string",
              "name": "msg",
              "type": "string"
            }
          ],
          "internalType": "struct TopSecret.Message[]",
          "name": "",
          "type": "tuple[]"
        }
      ],
      "stateMutability": "view",
      "type": "function"
    },
    {
      "inputs": [
        {
          "internalType": "address",
          "name": "_who",
          "type": "address"
        }
      ],
      "name": "getName",
      "outputs": [
        {
          "internalType": "string",
          "name": "",
          "type": "string"
        }
      ],
      "stateMutability": "view",
      "type": "function"
    },
    {
      "inputs": [
        {
          "internalType": "string",
          "name": "_team",
          "type": "string"
        }
      ],
      "name": "getPoints",
      "outputs": [
        {
          "internalType": "int256",
          "name": "",
          "type": "int256"
        }
      ],
      "stateMutability": "view",
      "type": "function"
    },
    {
      "inputs": [
        {
          "internalType": "address",
          "name": "_owner",
          "type": "address"
        }
      ],
      "name": "isAddressOwner",
      "outputs": [
        {
          "internalType": "bool",
          "name": "",
          "type": "bool"
        }
      ],
      "stateMutability": "view",
      "type": "function"
    },
    {
      "inputs": [
        {
          "internalType": "address",
          "name": "_oldOwner",
          "type": "address"
        }
      ],
      "name": "removeOwner",
      "outputs": [],
      "stateMutability": "nonpayable",
      "type": "function"
    },
    {
      "inputs": [
        {
          "internalType": "string",
          "name": "_msg",
          "type": "string"
        }
      ],
      "name": "sendMessage",
      "outputs": [],
      "stateMutability": "nonpayable",
      "type": "function"
    }
  ],
  "bytecode": "0x60806040523480156200001157600080fd5b506040518060400160405280600881526020017f4d7220456c69616e000000000000000000000000000000000000000000000000815250600160007311bf370f30d4e7ccee8a1482d41f766e3038319a73ffffffffffffffffffffffffffffffffffffffff1673ffffffffffffffffffffffffffffffffffffffff1681526020019081526020016000209081620000a9919062000508565b506040518060400160405280600781526020017f466c6f7269616e0000000000000000000000000000000000000000000000000081525060016000733feaf839b1a670b7d0a589f4e4b1309a3e348f9273ffffffffffffffffffffffffffffffffffffffff1673ffffffffffffffffffffffffffffffffffffffff168152602001908152602001600020908162000141919062000508565b506001600260405162000154906200064a565b908152602001604051809103902060006101000a81548160ff021916908315150217905550600160026040516200018b90620006b1565b908152602001604051809103902060006101000a81548160ff0219169083151502179055506001600460007311bf370f30d4e7ccee8a1482d41f766e3038319a73ffffffffffffffffffffffffffffffffffffffff1673ffffffffffffffffffffffffffffffffffffffff16815260200190815260200160002060006101000a81548160ff021916908315150217905550600160046000733feaf839b1a670b7d0a589f4e4b1309a3e348f9273ffffffffffffffffffffffffffffffffffffffff1673ffffffffffffffffffffffffffffffffffffffff16815260200190815260200160002060006101000a81548160ff021916908315150217905550620006c8565b600081519050919050565b7f4e487b7100000000000000000000000000000000000000000000000000000000600052604160045260246000fd5b7f4e487b7100000000000000000000000000000000000000000000000000000000600052602260045260246000fd5b600060028204905060018216806200031057607f821691505b602082108103620003265762000325620002c8565b5b50919050565b60008190508160005260206000209050919050565b60006020601f8301049050919050565b600082821b905092915050565b600060088302620003907fffffffffffffffffffffffffffffffffffffffffffffffffffffffffffffffff8262000351565b6200039c868362000351565b95508019841693508086168417925050509392505050565b6000819050919050565b6000819050919050565b6000620003e9620003e3620003dd84620003b4565b620003be565b620003b4565b9050919050565b6000819050919050565b6200040583620003c8565b6200041d6200041482620003f0565b8484546200035e565b825550505050565b600090565b6200043462000425565b62000441818484620003fa565b505050565b5b8181101562000469576200045d6000826200042a565b60018101905062000447565b5050565b601f821115620004b85762000482816200032c565b6200048d8462000341565b810160208510156200049d578190505b620004b5620004ac8562000341565b83018262000446565b50505b505050565b600082821c905092915050565b6000620004dd60001984600802620004bd565b1980831691505092915050565b6000620004f88383620004ca565b9150826002028217905092915050565b62000513826200028e565b67ffffffffffffffff8111156200052f576200052e62000299565b5b6200053b8254620002f7565b620005488282856200046d565b600060209050601f8311600181146200058057600084156200056b578287015190505b620005778582620004ea565b865550620005e7565b601f19841662000590866200032c565b60005b82811015620005ba5784890151825560018201915060208501945060208101905062000593565b86831015620005da5784890151620005d6601f891682620004ca565b8355505b6001600288020188555050505b505050505050565b600081905092915050565b7f48656c6c6f20576f726c64210000000000000000000000000000000000000000600082015250565b600062000632600c83620005ef565b91506200063f82620005fa565b600c82019050919050565b6000620006578262000623565b9150819050919050565b7f636f646500000000000000000000000000000000000000000000000000000000600082015250565b600062000699600483620005ef565b9150620006a68262000661565b600482019050919050565b6000620006be826200068a565b9150819050919050565b6116aa80620006d86000396000f3fe608060405234801561001057600080fd5b50600436106100935760003560e01c80633f1b799e116100665780633f1b799e1461011c578063469c81101461014c5780635fd4b08a146101685780635ff6cbf3146101985780636ba2456e146101b657610093565b8063173825d9146100985780631c95d0b5146100b45780633511de41146100d05780633542758f14610100575b600080fd5b6100b260048036038101906100ad9190610ab3565b6101d2565b005b6100ce60048036038101906100c99190610c26565b6102bf565b005b6100ea60048036038101906100e59190610ab3565b6103f7565b6040516100f79190610c8a565b60405180910390f35b61011a60048036038101906101159190610ca5565b61044d565b005b61013660048036038101906101319190610c26565b610588565b6040516101439190610d1a565b60405180910390f35b61016660048036038101906101619190610c26565b6105b0565b005b610182600480360381019061017d9190610ab3565b6106fa565b60405161018f9190610db4565b60405180910390f35b6101a06107cb565b6040516101ad9190610f2e565b60405180910390f35b6101d060048036038101906101cb9190610f50565b610912565b005b600460003373ffffffffffffffffffffffffffffffffffffffff1673ffffffffffffffffffffffffffffffffffffffff16815260200190815260200160002060009054906101000a900460ff1615610281576000600460008373ffffffffffffffffffffffffffffffffffffffff1673ffffffffffffffffffffffffffffffffffffffff16815260200190815260200160002060006101000a81548160ff0219169083151502179055506102bc565b6040517f08c379a00000000000000000000000000000000000000000000000000000000081526004016102b39061103a565b60405180910390fd5b50565b600460003373ffffffffffffffffffffffffffffffffffffffff1673ffffffffffffffffffffffffffffffffffffffff16815260200190815260200160002060009054906101000a900460ff16156103b9576002816040516103219190611096565b908152602001604051809103902060009054906101000a900460ff161561037d576040517f08c379a0000000000000000000000000000000000000000000000000000000008152600401610374906110f9565b60405180910390fd5b600160028260405161038f9190611096565b908152602001604051809103902060006101000a81548160ff0219169083151502179055506103f4565b6040517f08c379a00000000000000000000000000000000000000000000000000000000081526004016103eb90611165565b60405180910390fd5b50565b6000600460008373ffffffffffffffffffffffffffffffffffffffff1673ffffffffffffffffffffffffffffffffffffffff16815260200190815260200160002060009054906101000a900460ff169050919050565b600460003373ffffffffffffffffffffffffffffffffffffffff1673ffffffffffffffffffffffffffffffffffffffff16815260200190815260200160002060009054906101000a900460ff1615610549576001600460008473ffffffffffffffffffffffffffffffffffffffff1673ffffffffffffffffffffffffffffffffffffffff16815260200190815260200160002060006101000a81548160ff02191690831515021790555080600160008473ffffffffffffffffffffffffffffffffffffffff1673ffffffffffffffffffffffffffffffffffffffff1681526020019081526020016000209081610543919061139b565b50610584565b6040517f08c379a000000000000000000000000000000000000000000000000000000000815260040161057b906114df565b60405180910390fd5b5050565b600060038260405161059a9190611096565b9081526020016040518091039020549050919050565b600460003373ffffffffffffffffffffffffffffffffffffffff1673ffffffffffffffffffffffffffffffffffffffff16815260200190815260200160002060009054906101000a900460ff16156106bc57600060405180604001604052803373ffffffffffffffffffffffffffffffffffffffff16815260200183815250908060018154018082558091505060019003906000526020600020906002020160009091909190915060008201518160000160006101000a81548173ffffffffffffffffffffffffffffffffffffffff021916908373ffffffffffffffffffffffffffffffffffffffff16021790555060208201518160010190816106b4919061139b565b5050506106f7565b6040517f08c379a00000000000000000000000000000000000000000000000000000000081526004016106ee90611571565b60405180910390fd5b50565b6060600160008373ffffffffffffffffffffffffffffffffffffffff1673ffffffffffffffffffffffffffffffffffffffff1681526020019081526020016000208054610746906111b4565b80601f0160208091040260200160405190810160405280929190818152602001828054610772906111b4565b80156107bf5780601f10610794576101008083540402835291602001916107bf565b820191906000526020600020905b8154815290600101906020018083116107a257829003601f168201915b50505050509050919050565b60606000805480602002602001604051908101604052809291908181526020016000905b8282101561090957838290600052602060002090600202016040518060400160405290816000820160009054906101000a900473ffffffffffffffffffffffffffffffffffffffff1673ffffffffffffffffffffffffffffffffffffffff1673ffffffffffffffffffffffffffffffffffffffff168152602001600182018054610878906111b4565b80601f01602080910402602001604051908101604052809291908181526020018280546108a4906111b4565b80156108f15780601f106108c6576101008083540402835291602001916108f1565b820191906000526020600020905b8154815290600101906020018083116108d457829003601f168201915b505050505081525050815260200190600101906107ef565b50505050905090565b6002826040516109229190611096565b908152602001604051809103902060009054906101000a900460ff1615610a025760006002836040516109559190611096565b908152602001604051809103902060006101000a81548160ff021916908315150217905550600060038260405161098c9190611096565b908152602001604051809103902054146109d8576003816040516109b09190611096565b908152602001604051809103902060008154809291906109cf906115c0565b919050556109fc565b60016003826040516109ea9190611096565b90815260200160405180910390208190555b50610a3d565b6040517f08c379a0000000000000000000000000000000000000000000000000000000008152600401610a3490611654565b60405180910390fd5b5050565b6000604051905090565b600080fd5b600080fd5b600073ffffffffffffffffffffffffffffffffffffffff82169050919050565b6000610a8082610a55565b9050919050565b610a9081610a75565b8114610a9b57600080fd5b50565b600081359050610aad81610a87565b92915050565b600060208284031215610ac957610ac8610a4b565b5b6000610ad784828501610a9e565b91505092915050565b600080fd5b600080fd5b6000601f19601f8301169050919050565b7f4e487b7100000000000000000000000000000000000000000000000000000000600052604160045260246000fd5b610b3382610aea565b810181811067ffffffffffffffff82111715610b5257610b51610afb565b5b80604052505050565b6000610b65610a41565b9050610b718282610b2a565b919050565b600067ffffffffffffffff821115610b9157610b90610afb565b5b610b9a82610aea565b9050602081019050919050565b82818337600083830152505050565b6000610bc9610bc484610b76565b610b5b565b905082815260208101848484011115610be557610be4610ae5565b5b610bf0848285610ba7565b509392505050565b600082601f830112610c0d57610c0c610ae0565b5b8135610c1d848260208601610bb6565b91505092915050565b600060208284031215610c3c57610c3b610a4b565b5b600082013567ffffffffffffffff811115610c5a57610c59610a50565b5b610c6684828501610bf8565b91505092915050565b60008115159050919050565b610c8481610c6f565b82525050565b6000602082019050610c9f6000830184610c7b565b92915050565b60008060408385031215610cbc57610cbb610a4b565b5b6000610cca85828601610a9e565b925050602083013567ffffffffffffffff811115610ceb57610cea610a50565b5b610cf785828601610bf8565b9150509250929050565b6000819050919050565b610d1481610d01565b82525050565b6000602082019050610d2f6000830184610d0b565b92915050565b600081519050919050565b600082825260208201905092915050565b60005b83811015610d6f578082015181840152602081019050610d54565b60008484015250505050565b6000610d8682610d35565b610d908185610d40565b9350610da0818560208601610d51565b610da981610aea565b840191505092915050565b60006020820190508181036000830152610dce8184610d7b565b905092915050565b600081519050919050565b600082825260208201905092915050565b6000819050602082019050919050565b610e0b81610a75565b82525050565b600082825260208201905092915050565b6000610e2d82610d35565b610e378185610e11565b9350610e47818560208601610d51565b610e5081610aea565b840191505092915050565b6000604083016000830151610e736000860182610e02565b5060208301518482036020860152610e8b8282610e22565b9150508091505092915050565b6000610ea48383610e5b565b905092915050565b6000602082019050919050565b6000610ec482610dd6565b610ece8185610de1565b935083602082028501610ee085610df2565b8060005b85811015610f1c5784840389528151610efd8582610e98565b9450610f0883610eac565b925060208a01995050600181019050610ee4565b50829750879550505050505092915050565b60006020820190508181036000830152610f488184610eb9565b905092915050565b60008060408385031215610f6757610f66610a4b565b5b600083013567ffffffffffffffff811115610f8557610f84610a50565b5b610f9185828601610bf8565b925050602083013567ffffffffffffffff811115610fb257610fb1610a50565b5b610fbe85828601610bf8565b9150509250929050565b7f596f7520617265206e6f7420616c6c6f77656420746f2072656d6f7665206f7760008201527f6e65727300000000000000000000000000000000000000000000000000000000602082015250565b6000611024602483610d40565b915061102f82610fc8565b604082019050919050565b6000602082019050818103600083015261105381611017565b9050919050565b600081905092915050565b600061107082610d35565b61107a818561105a565b935061108a818560208601610d51565b80840191505092915050565b60006110a28284611065565b915081905092915050565b7f636f646520616c72656164792061637469766500000000000000000000000000600082015250565b60006110e3601383610d40565b91506110ee826110ad565b602082019050919050565b60006020820190508181036000830152611112816110d6565b9050919050565b7f596f7520617265206e6f7420616c6c6f77656420746f2061646420636f646573600082015250565b600061114f602083610d40565b915061115a82611119565b602082019050919050565b6000602082019050818103600083015261117e81611142565b9050919050565b7f4e487b7100000000000000000000000000000000000000000000000000000000600052602260045260246000fd5b600060028204905060018216806111cc57607f821691505b6020821081036111df576111de611185565b5b50919050565b60008190508160005260206000209050919050565b60006020601f8301049050919050565b600082821b905092915050565b6000600883026112477fffffffffffffffffffffffffffffffffffffffffffffffffffffffffffffffff8261120a565b611251868361120a565b95508019841693508086168417925050509392505050565b6000819050919050565b6000819050919050565b600061129861129361128e84611269565b611273565b611269565b9050919050565b6000819050919050565b6112b28361127d565b6112c66112be8261129f565b848454611217565b825550505050565b600090565b6112db6112ce565b6112e68184846112a9565b505050565b5b8181101561130a576112ff6000826112d3565b6001810190506112ec565b5050565b601f82111561134f57611320816111e5565b611329846111fa565b81016020851015611338578190505b61134c611344856111fa565b8301826112eb565b50505b505050565b600082821c905092915050565b600061137260001984600802611354565b1980831691505092915050565b600061138b8383611361565b9150826002028217905092915050565b6113a482610d35565b67ffffffffffffffff8111156113bd576113bc610afb565b5b6113c782546111b4565b6113d282828561130e565b600060209050601f83116001811461140557600084156113f3578287015190505b6113fd858261137f565b865550611465565b601f198416611413866111e5565b60005b8281101561143b57848901518255600182019150602085019450602081019050611416565b868310156114585784890151611454601f891682611361565b8355505b6001600288020188555050505b505050505050565b7f596f7520617265206e6f7420616c6c6f77656420746f20616464206f776e657260008201527f7300000000000000000000000000000000000000000000000000000000000000602082015250565b60006114c9602183610d40565b91506114d48261146d565b604082019050919050565b600060208201905081810360008301526114f8816114bc565b9050919050565b7f596f7520617265206e6f7420616c6c6f77656420746f2073656e64206d65737360008201527f6167657300000000000000000000000000000000000000000000000000000000602082015250565b600061155b602483610d40565b9150611566826114ff565b604082019050919050565b6000602082019050818103600083015261158a8161154e565b9050919050565b7f4e487b7100000000000000000000000000000000000000000000000000000000600052601160045260246000fd5b60006115cb82610d01565b91507f7fffffffffffffffffffffffffffffffffffffffffffffffffffffffffffffff82036115fd576115fc611591565b5b600182019050919050565b7f496e76616c696420636f64650000000000000000000000000000000000000000600082015250565b600061163e600c83610d40565b915061164982611608565b602082019050919050565b6000602082019050818103600083015261166d81611631565b905091905056fea2646970667358221220287a40f4f23cd0d911deabe709394a3dd7118922c40054f6f66d75e8b6b2997864736f6c63430008110033",
  "linkReferences": {},
  "deployedLinkReferences": {}
}